{
  "contractName": "SocialConnections",
  "abi": [
    {
      "inputs": [
        {
          "internalType": "address",
          "name": "friend",
          "type": "address"
        }
      ],
      "name": "addConnection",
      "outputs": [],
      "stateMutability": "nonpayable",
      "type": "function"
    },
    {
      "inputs": [],
      "name": "getConnections",
      "outputs": [
        {
          "internalType": "address[]",
          "name": "",
          "type": "address[]"
        }
      ],
      "stateMutability": "view",
      "type": "function",
      "constant": true
    }
  ],
  "bytecode": "0x608060405234801561001057600080fd5b50610387806100206000396000f3fe608060405234801561001057600080fd5b50600436106100365760003560e01c80632d945dd31461003b578063677dea1d14610059575b600080fd5b610043610075565b60405161005091906102d1565b60405180910390f35b610073600480360381019061006e9190610324565b61013f565b005b60606000803373ffffffffffffffffffffffffffffffffffffffff1673ffffffffffffffffffffffffffffffffffffffff16815260200190815260200160002080548060200260200160405190810160405280929190818152602001828054801561013557602002820191906000526020600020905b8160009054906101000a900473ffffffffffffffffffffffffffffffffffffffff1673ffffffffffffffffffffffffffffffffffffffff16815260200190600101908083116100eb575b5050505050905090565b6000803373ffffffffffffffffffffffffffffffffffffffff1673ffffffffffffffffffffffffffffffffffffffff168152602001908152602001600020819080600181540180825580915050600190039060005260206000200160009091909190916101000a81548173ffffffffffffffffffffffffffffffffffffffff021916908373ffffffffffffffffffffffffffffffffffffffff16021790555050565b600081519050919050565b600082825260208201905092915050565b6000819050602082019050919050565b600073ffffffffffffffffffffffffffffffffffffffff82169050919050565b60006102388261020d565b9050919050565b6102488161022d565b82525050565b600061025a838361023f565b60208301905092915050565b6000602082019050919050565b600061027e826101e1565b61028881856101ec565b9350610293836101fd565b8060005b838110156102c45781516102ab888261024e565b97506102b683610266565b925050600181019050610297565b5085935050505092915050565b600060208201905081810360008301526102eb8184610273565b905092915050565b600080fd5b6103018161022d565b811461030c57600080fd5b50565b60008135905061031e816102f8565b92915050565b60006020828403121561033a576103396102f3565b5b60006103488482850161030f565b9150509291505056fea2646970667358221220c6ff23247ba7340be906ea88901c8b3a3c28d64b8b5f42b324502646fcdbeeec64736f6c63430008130033",
  "immutableReferences": {},
  "source": "// SPDX-License-Identifier: MIT\npragma solidity 0.8.19;\n\ncontract SocialConnections {\n    mapping(address => address[]) private connections;\n\n    function addConnection(address friend) public {\n        connections[msg.sender].push(friend);\n    }\n\n    function getConnections() public view returns (address[] memory) {\n        return connections[msg.sender];\n    }\n}\n",
  "sourcePath": "/Users/test/web/demo-contracts/contracts/SocialConnenctions.sol",
  "compiler": {
    "name": "solc",
    "version": "0.8.19+commit.7dd6d404.Emscripten.clang"
  },
  "schemaVersion": "3.4.14",
  "updatedAt": "2023-07-28T10:56:15.894Z",
  "networkType": "ethereum",
  "devdoc": {
    "kind": "dev",
    "methods": {},
    "version": 1
  },
  "userdoc": {
    "kind": "user",
    "methods": {},
    "version": 1
  }
}